:020000040800F2
:10000000E8060020890100085D0300085503000888
:100010005903000839020008B90800080000000070
:10002000000000000000000000000000DD040008E7
:100030003D02000800000000E5030008F10500088B
:10004000A3010008A3010008A3010008A301000800
:10005000A3010008A3010008A3010008A3010008F0
:10006000A3010008A3010008A3010008A3010008E0
:10007000A3010008A3010008A3010008A3010008D0
:10008000A3010008A3010008A3010008A3010008C0
:10009000A3010008A3010008A3010008A3010008B0
:1000A000A3010008A3010008A3010008A3010008A0
:1000B000A3010008A3010008A3010008A301000890
:1000C000A3010008A3010008A3010008A301000880
:1000D000A30100089D060008A3010008A301000871
:1000E000A3010008A3010008A301000800F002F822
:1000F00000F03AF80AA090E8000C82448344AAF188
:100100000107DA4501D100F02FF8AFF2090EBAE885
:100110000F0013F0010F18BFFB1A43F0010318473B
:100120001409000034090000103A24BF78C878C1CF
:10013000FAD8520724BF30C830C144BF04680C60ED
:10014000704700000023002400250026103A28BF35
:1001500078C1FBD8520728BF30C148BF0B60704739
:100160001FB51FBD10B510BD00F033F81146FFF7E5
:10017000F7FF00F0BDFB00F051F803B4FFF7F2FF0A
:1001800003BC00F09BFB000009488047094800477A
:10019000FEE7FEE7FEE7FEE7FEE7FEE7FEE7FEE737
:1001A000FEE7FEE704480549054A064B7047000094
:1001B000F5050008ED000008E8000020E806002032
:1001C000E8020020E802002070477047704770473F
:1001D0007047754600F02CF8AE4605006946534658
:1001E00020F00700854618B020B5FFF7DBFFBDE81B
:1001F00020404FF000064FF000074FF000084FF08E
:10020000000B21F00701AC46ACE8C009ACE8C0091E
:10021000ACE8C009ACE8C0098D46704710B504468B
:10022000AFF300802046BDE81040FFF7A6BF0000F6
:10023000004870478400002000BFFEE770472DE9AA
:10024000F04102460025002600200023002400275C
:1002500091F803C00CF00F0591F803C00CF0100CDE
:10026000BCF1000F03D091F802C04CEA050591F8EB
:1002700000C0BCF1000F31D0146800202BE04FF01B
:10028000010C0CFA00F3B1F800C00CEA03069E4220
:1002900020D183004FF00F0C0CFA03F7BC4305FA92
:1002A00003FC4CEA040491F803C0BCF1280F06D10A
:1002B0004FF0010C0CFA00FCC2F814C00AE091F8EF
:1002C00003C0BCF1480F05D14FF0010C0CFA00FC43
:1002D000C2F810C0401C0828D1D31460B1F800C087
:1002E000BCF1FF0F34DD546800202EE000F1080C53
:1002F0004FF0010808FA0CF3B1F800C00CEA03064D
:100300009E4221D183004FF00F0C0CFA03F7BC433F
:1003100005FA03FC4CEA040491F803C0BCF1280F71
:1003200005D100F1080C08FA0CF8C2F8148091F815
:1003300003C0BCF1480F07D100F1080C4FF00108D1
:1003400008FA0CF8C2F81080401C0828CED354607C
:10035000BDE8F08100BFFEE700BFFEE77047000088
:1003600070B5002100230F22C47804B3154C246813
:1003700004F4E064C4F5E064210AC1F10403CA4056
:10038000447804FA03F184781440214309010E4CA7
:100390000678A155047804F01F050124AC400578C7
:1003A0006D11AD0005F1E025C5F8004109E00478C4
:1003B00004F01F050124AC40044D0678761145F881
:1003C000264070BD0CED00E000E400E080E100E0BC
:1003D00002490143024A1160704700000000FA051B
:1003E0000CED00E07047000029B1064A9269024313
:1003F000044B9A6104E0034A92698243014B9A617B
:10040000704700000010024030B500210022002497
:1004100000232D4D6D6805F00C0121B1042905D094
:10042000082923D105E0294D056022E0274D05600C
:100430001FE0254D6D6805F47012234D6D6805F4BD
:100440008034022505EB92421CB9214D55430560CD
:100450000BE01D4D6D6805F400351DB11C4D554375
:10046000056002E0194D5543056002E0174D056037
:1004700000BF00BF144D6D6805F0F0010909154D6E
:100480006B5C0568DD4045600F4D6D6805F4E0610B
:10049000090A104D6B5C4568DD4085600A4D6D684A
:1004A00005F46051C90A0B4D6B5C4568DD40C560C1
:1004B000054D6D6805F44041890B074D6B5CC568BF
:1004C000B5FBF3F5056130BD0010024000127A0063
:1004D00000093D000000002010000020704710B50A
:1004E00000F002F810BD00000CB500200190009053
:1004F0003348006840F480303149086000BF30481C
:10050000006800F4003000900198401C01900098B1
:1005100018B90198B0F5A06FF1D12948006800F42E
:10052000003010B10120009001E000200090009800
:10053000012843D12348006840F010002149086099
:100540000846006820F0030008600846006840F094
:10055000020008601A484068194948600846406827
:1005600048600846406840F480604860084640683B
:1005700020F47C1048600846406840F4E810486069
:100580000846006840F08070086000BF0C480068B2
:1005900000F000700028F9D00948406820F00300FE
:1005A000074948600846406840F00200486000BFC4
:1005B0000348406800F00C000828F9D10CBD000089
:1005C0000010024000200240042808D14FF0E02132
:1005D000096941F004014FF0E022116107E04FF09A
:1005E000E021096921F004014FF0E0221161704718
:1005F0007047000010B51348006840F00100114931
:10060000086008464068104908400E49486008469E
:1006100000680E4908400B4908600846006820F44D
:10062000802008600846406820F4FE0048604FF4CF
:100630001F008860FFF753FF4FF000600449086017
:1006400010BD0000001002400000FFF8FFFFF6FEA2
:1006500008ED00E010B5054802880549054800F09E
:1006600069F900200149088010BD00001C0000202D
:100670002000002000380140054800880549064A4E
:100680001288885404480088401C03490880704739
:1006900004380140200000201C00002008B540F272
:1006A0002551104800F048F8012807D1FFF7E4FF72
:1006B00040F225510B4800F017F812E040F22441B7
:1006C000084800F039F801280BD1002000900548B7
:1006D000008800900348001D00880090FFF7BAFFD3
:1006E00000BF08BD0038014010B50022002340F6CD
:1006F0006A14A14200D100BF0A1201249440A3B29F
:10070000DC43048010BD21B1828942F40052828111
:1007100004E082894DF6FF731A40828170470246D9
:100720000020B1F5007F00D100BF13880B400BB152
:10073000012000E00020704770B50246002400232D
:100740000025002040F66A16B14200D100BFC1F377
:10075000421501F01F03012606FA03F3012D02D111
:100760009689334006E0022D02D1168A334001E01B
:10077000968A33400C12012606FA04F41688344097
:1007800013B10CB1012000E0002070BDF0B50346AC
:10079000002400260025002040F66A17B94200D147
:1007A00000BF1846C1F3421401F01F06012707FAE3
:1007B00006F5012C01D10C3004E0022C01D11030DF
:1007C00000E014301AB107682F43076002E00768A1
:1007D000AF430760F0BD00002DE9F04786B0054645
:1007E0000E460024A24600BFA1460027B08900B1F2
:1007F00000BF2F462C8A4CF6FF700440F08804435B
:100800002C82AC894EF6F3100440B088318908433D
:10081000718908430443AC81AC8A4FF6FF40044021
:10082000B0890443AC8201A8FFF7EEFD1F48874260
:1008300002D1DDF810A001E0DDF80CA0A88900F4D9
:10084000004040B10AEBCA0000EB0A1031684900D1
:10085000B0FBF1F807E00AEBCA0000EB0A103168C0
:100860008900B0FBF1F86420B8FBF0F00401200926
:10087000642101FB1089A88900F4004040B13220B6
:1008800000EBC900B0FBF1F000F00700044308E002
:10089000322000EB09106421B0FBF1F000F00F00F2
:1008A00004432C8106B0BDE8F08700000038014009
:1008B000C1F308028280704700BFFEE700BF7047A7
:1008C00008B50020009001211020FFF78DFD1020B9
:1008D0008DF803004002ADF8000002208DF8020000
:1008E00069460248FFF7ABFC08BD0000001001405C
:1008F0004FF4A060FFF76CFD482000F009F8FFF707
:10090000DFFF4FF4E13000F035F800BFFEE70000F4
:1009100010B504460420FFF757FE04480460006841
:100920004FF47A7148430249086010BD140000205A
:10093000180000202DE9F04107460C461546002618
:100940000DE014F8011B3846FFF7B2FF00BF80210D
:100950003846FFF7E4FE0028F9D0701C86B2AE429C
:10096000EFDB00BF40213846FFF7D9FE0028F9D061
:10097000BDE8F08110B586B0044601218803FFF779
:1009800033FD01210420FFF72FFD002005901820E2
:100990008DF817004FF40070ADF8140001208DF8A9
:1009A000160005A92148FFF74AFC04208DF817001E
:1009B0000002ADF8140005A91C48FFF740FC002018
:1009C00001900290039004900194ADF810000C2067
:1009D000ADF80E000020ADF80C00ADF80A00ADF83F
:1009E000080001A91248FFF7F7FE01211048FFF7A0
:1009F0008AFE012240F225510D48FFF7C7FE012271
:100A000040F224410A48FFF7C1FE00200090252053
:100A10008DF8000001208DF803008DF801008DF89D
:100A200002006846FFF79CFC06B010BD00080140BC
:100A300000380140540A0008000000202000000097
:100A400028010008740A000820000020C8060000E1
:100A50004401000800000000010203040102030435
:100A60000607080902040608000000000000000054
:040A70000000000082
:04000005080000ED02
:00000001FF
