:020000040800F2
:1000000090080020D9010008EF0C0008B30900088F
:10001000EB0C000855060008291500080000000038
:10002000000000000000000000000000AD0E00080D
:100030007F08000800000000750D0008C10F0008CF
:10004000F3010008F3010008F3010008F3010008C0
:10005000F3010008F3010008F3010008F3010008B0
:10006000F3010008F3010008F3010008F3010008A0
:1000700059060008F3010008F3010008F301000825
:10008000F3010008F3010008F3010008F301000880
:10009000F3010008F3010008F3010008F301000870
:1000A000F3010008CD100008F3010008F301000877
:1000B000F3010008F3010008F3010008F301000850
:1000C000F3010008F3010008F3010008F301000840
:1000D000F30100080D130008F3010008F301000804
:1000E000F3010008F3010008F301000800F002F832
:1000F00000F062F80AA090E8000C82448344AAF160
:100100000107DA4501D100F057F8AFF2090EBAE85D
:100110000F0013F0010F18BFFB1A43F0010318473B
:10012000E4190000041A00000A444FF0000C10F813
:10013000013B13F0070408BF10F8014B1D1108BF65
:1001400010F8015B641E05D010F8016B641E01F805
:10015000016BF9D113F0080F1EBF10F8014BAD1C55
:100160000C1B09D16D1E58BF01F801CBFAD505E073
:1001700014F8016B01F8016B6D1EF9D59142D6D3CD
:10018000704700000023002400250026103A28BFF5
:1001900078C1FBD8520728BF30C148BF0B607047F9
:1001A000642900F06F80782900F0A8800020704753
:1001B0001FB51FBD10B510BD00F01AFA1146FFF7AC
:1001C000F7FF01F087FA00F038FA03B4FFF7F2FF07
:1001D00003BC01F0B2F90000094880470948004714
:1001E000FEE7FEE7FEE7FEE7FEE7FEE7FEE7FEE7E7
:1001F000FEE7FEE704480549054A064B7047000044
:1002000069100008ED00000890020020900800200E
:100210009004002090040020704700000FB40449AF
:1002200010B503AA029800F0B5F910BC5DF814FBF4
:100230002800002070B5044685690068C10601D514
:10024000302600E02026C00707D070BDD4E9012188
:1002500030469047206A401C20626D1EF6D570BD66
:1002600070B5044685690078C00707D170BDD4E930
:10027000012120209047206A401C20626D1EF6D587
:1002800070BD00002DE9F041064600241068752974
:10029000314616A510D0AFF30080002802DA4042A4
:1002A00013A507E031688A0701D512A502E04907C6
:1002B00004D511A5012401E0AFF3008000210A223A
:1002C00006F1240709E0B0FBF2FCB0FBF2F302FBFD
:1002D0001C00303078541846491C0028F3D12346BE
:1002E0002A463046BDE8F04100F0FBB800000000AF
:1002F0002D0000002B0000002000000070B5044617
:100300000D4621461068AFF300802188090502D50B
:100310000F4A7A4402E00E4A7A440E32002104F178
:10032000240305E000F00F060009965D5E54491CA9
:100330000028F7D120780023000704D5702D02D0C3
:1003400009B1022311322046BDE8704000F0C9B85F
:10035000B41700002DE9F05F894604464FF0000A0B
:10036000DFF824B1FB44C0F820A02046E1688847AC
:1003700000287DD0252806D0D4E901219047206AA5
:10038000401C2062F1E700255F462046E16888476F
:100390002028064607DB312E05D2B81910F8200CAC
:1003A00008B10543F1E7A80701D525F00405C4F815
:1003B0001CA00027C4F818A02A2E09D0304601F04E
:1003C000B5F838B304EB8708303EC8F8186019E078
:1003D00059F8041B204604EB87029161E1688847C5
:1003E000012F064618D1E069002820DA25F0200503
:1003F0001DE0D8F8180000EB800006EB4000303814
:10040000C8F818002046E1688847064601F08EF8D3
:100410000028EED1012F0AD02E2E08D12046E16807
:1004200088477F1C0646022F45F02005C4DBA069E3
:10043000002803DA404245F00105A061E80701D039
:1004400025F01005A6B1A6F14100192802D82036E2
:1004500045F400654A463146204625604D46FFF783
:100460009FFE60B1012807D0ED1D25F0070000E0D8
:1004700007E000F1080978E705F1040975E730465F
:100480007AE7206ABDE8F09F8A1700004FF000026B
:1004900000B5134694469646203922BFA0E80C507A
:1004A000A0E80C50B1F12001BFF4F7AF090728BF55
:1004B000A0E80C5048BF0CC05DF804EB890028BFD1
:1004C00040F8042B08BF704748BF20F8022B11F0FA
:1004D000804F18BF00F8012B704770477047704776
:1004E00070472DE9F0470D4699469246044600F1C3
:1004F00024080168880604D5E06921F01001216014
:1005000000E00120A84201DD471B00E00027A169AF
:100510007A1902EB0900081AA0612078C00602D4FB
:100520002046FFF787FE002608E0D4E901211AF8EB
:1005300006009047206A401C761C20624E45F4DB82
:100540002078C0060AD52046FFF774FE06E0D4E9FD
:10055000012130209047206A401C2062381EA7F1FC
:100560000107F4DC07E0D4E9012118F80500904701
:10057000206A401C2062281EA5F10105F3DC2046FC
:10058000FFF76EFE2078000602D50220BDE8F08756
:100590000120FBE7074B70B50D467B4400F011F8D6
:1005A0000446284600F020F810B14FF0FF3070BD2F
:1005B000204670BD3B10000001694A1C02610878AA
:1005C000704700B58FB0CDE9013100210591054993
:1005D0007944CDE9031011466846FFF7BBFE0FB022
:1005E00000BD0000E5FFFFFF007B00F080007047CA
:1005F000754600F02BF8AE4605006946534620F0DC
:100600000700854618B020B5FFF7F4FDBDE820408F
:100610004FF000064FF000074FF000084FF0000BBE
:1006200021F00701AC46ACE8C009ACE8C009ACE871
:10063000C009ACE8C0098D46704710B50446AFF359
:1006400000802046BDE81040FFF7BFBD004870475E
:100650002C02002000BFFEE710B5202000F0D0F8EB
:10066000012808D10021044800F018F8202000F0EB
:1006700007F800F003F810BD1C00024070470000AE
:1006800000F0805111B10349086001E0024948605F
:1006900070470000040402400000024021B10268DB
:1006A00042F00102026004E002684FF6FE731A4055
:1006B0000260704701684FF6FE7211400160002130
:1006C000016041608160C1604B49884208D14A495C
:1006D0000839496841F00F01474A083A51608AE0F9
:1006E00045491431884208D143490839496841F0E5
:1006F000F001414A083A51607DE03F492831884283
:1007000008D13D490839496841F470613A4A083ACC
:10071000516070E038493C31884208D13649083987
:10072000496841F47041344A083A516063E0324903
:100730005031884208D130490839496841F4702164
:100740002D4A083A516056E02B496431884208D15D
:1007500029490839496841F47001274A083A51602B
:1007600049E025497831884208D123490839496848
:1007700041F07061204A083A51603CE01F498842CC
:1007800006D1011F096841F00F01021F116032E01C
:100790001A491431884208D11849091F096841F0E3
:1007A000F001164A121F116025E0144928318842D1
:1007B00008D11249091F096841F470610F4A121FDC
:1007C000116018E00D493C31884208D10B49091FDE
:1007D000096841F47041094A121F11600BE0074992
:1007E0005031884207D10549091F096841F4702139
:1007F000024A121F116070470800024008040240BC
:1008000001460020002201F0805313B1054B1A6805
:1008100001E0054B1A6802EA01030BB1012000E078
:100820000020704700040240000002401AB1036833
:100830000B43036002E003688B430360704710B50D
:100840000022026847F6F0739A430C6A8B682343D0
:100850000C6923434C6923438C692343CC692343AC
:100860004C6A23438C6A23431A430260CB6843607B
:100870000B6883604B68C36010BD41607047704770
:100880002DE9F04102460025002600200023002427
:10089000002791F803C00CF00F0591F803C00CF08D
:1008A000100CBCF1000F03D091F802C04CEA050512
:1008B00091F800C0BCF1000F31D0146800202BE08B
:1008C0004FF0010C0CFA00F3B1F800C00CEA03067B
:1008D0009E4220D183004FF00F0C0CFA03F7BC436B
:1008E00005FA03FC4CEA040491F803C0BCF1280F9C
:1008F00006D14FF0010C0CFA00FCC2F814C00AE05B
:1009000091F803C0BCF1480F05D14FF0010C0CFA6F
:1009100000FCC2F810C0401C0828D1D31460B1F804
:1009200000C0BCF1FF0F34DD546800202EE000F160
:10093000080C4FF0010808FA0CF3B1F800C00CEAFB
:1009400003069E4221D183004FF00F0C0CFA03F7EF
:10095000BC4305FA03FC4CEA040491F803C0BCF163
:10096000280F05D100F1080C08FA0CF8C2F8148021
:1009700091F803C0BCF1480F07D100F1080C4FF00B
:10098000010808FA0CF8C2F81080401C0828CED3E1
:100990005460BDE8F08102460020D3680B400BB1E3
:1009A000012000E0002070470AB1016100E04161D0
:1009B000704700BFFEE721B1028842F480620280E6
:1009C00004E002884FF6FF331A400280704770B58A
:1009D00002460024002500230020958A138B1B0467
:1009E00045EA030626F07F4404EA01068E4201D15F
:1009F000012000E0002070BD21B1028842F0010218
:100A0000028004E002884FF6FE731A4002807047AD
:100A100021B1028842F48072028004E002884FF61D
:100A2000FF631A400280704721B1028842F40072CD
:100A3000028004E002884FF6FF531A40028070479C
:100A40000CB50246002000230193009300920B0F87
:100A5000019321F07F41019B1BB1009B1433009354
:100A600003E0090C009B18330093009B1B680B40AC
:100A70000BB1012000E000200CBD00002DE9F04387
:100A800085B004460D460026B1460427DFF8CC8029
:100A9000A6884FF6C0700640684600F09DF9DDF864
:100AA00008802F48B8FBF0F01FFA80F946EA0906E3
:100AB000A68020884FF6FE71084020800026294934
:100AC000286888420CD828684000B8FBF0F087B24C
:100AD000042F00DA04273E4309F10100208427E0B7
:100AE000E8884BF6FF71884206D1286800EB400089
:100AF000B8FBF0F087B209E0286800EBC00101EB19
:100B00000010B8FBF0F087B247F48047C7F30B0042
:100B100008B947F0010747F4004006434FF49670C8
:100B200009FB00F04FF47A7190FBF1F0401C208437
:100B3000A683208840F00100208026884FF6F530FB
:100B40000640A8886989084306432680A889298920
:100B50000843208105B0BDE8F083000000127A0050
:100B600040420F00A08601002DE9F04780468946EB
:100B700017461D46089E00244FF4204406E0201E20
:100B8000A4F1010402D10120BDE8F0874FF4003147
:100B90004046FFF755FF0028F1D101214046FFF7FD
:100BA00037FF4FF4805405E0201EA4F1010401D169
:100BB0000220E9E742494046FFF709FF0028F3D049
:100BC00000224946404600F085F805E0201EA4F1C9
:100BD000010401D10320D7E73A494046FFF7F7FE69
:100BE0000028F3D001214046FFF706FF3946404672
:100BF00000F079F84FF4805405E0201EA4F10104C0
:100C000001D10420C0E72F49891C4046FFF7DFFED1
:100C10000028F2D0C82000F092FC01214046FFF7E6
:100C2000F7FE4FF4805405E0201EA4F1010401D129
:100C30000520A9E722494046FFF7C9FE0028F3D066
:100C400001224946404600F045F84FF4805405E043
:100C5000201EA4F1010401D1062095E71849491C82
:100C60004046FFF7B4FE0028F2D020E0012E07D165
:100C700000211548FFF79FFE01211348FFF7D4FE1E
:100C80004FF4204405E0201EA4F1010401D1072007
:100C90007AE70B493F310C48FFF799FE0028F2D064
:100CA000094800F013F828706D1C701E86B2002EE3
:100CB000DCD101210448FFF77EFE012064E700003B
:100CC0000100030082000700005400400146088A2A
:100CD000C0B2704712B141F0010102E04FF6FE735D
:100CE0001940018270470182704700BFFEE77047DC
:100CF00070B5002100230F22C47804B3154C24687A
:100D000004F4E064C4F5E064210AC1F10403CA40BC
:100D1000447804FA03F184781440214309010E4C0D
:100D20000678A155047804F01F050124AC4005782D
:100D30006D11AD0005F1E025C5F8004109E004782A
:100D400004F01F050124AC40044D0678761145F8E7
:100D5000264070BD0CED00E000E400E080E100E022
:100D600002490143024A1160704700000000FA0581
:100D70000CED00E07047000029B1064A52690243B9
:100D8000044B5A6104E0034A52698243014B5A61A1
:100D9000704700000010024029B1064AD2690243A0
:100DA000044BDA6104E0034AD2698243014BDA6101
:100DB000704700000010024029B1064A92690243C0
:100DC000044B9A6104E0034A92698243014B9A61A1
:100DD000704700000010024030B5002100220024BE
:100DE00000232D4D6D6805F00C0121B1042905D0BB
:100DF000082923D105E0294D056022E0274D056033
:100E00001FE0254D6D6805F47012234D6D6805F4E3
:100E10008034022505EB92421CB9214D55430560F3
:100E20000BE01D4D6D6805F400351DB11C4D55439B
:100E3000056002E0194D5543056002E0174D05605D
:100E400000BF00BF144D6D6805F0F0010909154D94
:100E50006B5C0568DD4045600F4D6D6805F4E06131
:100E6000090A104D6B5C4568DD4085600A4D6D6870
:100E700005F46051C90A0B4D6B5C4568DD40C560E7
:100E8000054D6D6805F44041890B074D6B5CC568E5
:100E9000B5FBF3F5056130BD0010024000127A0089
:100EA00000093D000000002010000020704710B530
:100EB00000F002F810BD00000CB500200190009079
:100EC0003348006840F480303149086000BF304842
:100ED000006800F4003000900198401C01900098D8
:100EE00018B90198B0F5A06FF1D12948006800F455
:100EF000003010B10120009001E000200090009827
:100F0000012843D12348006840F0100021490860BF
:100F10000846006820F0030008600846006840F0BA
:100F2000020008601A48406819494860084640684D
:100F300048600846406840F4806048600846406861
:100F400020F47C1048600846406840F4E81048608F
:100F50000846006840F08070086000BF0C480068D8
:100F600000F000700028F9D00948406820F0030024
:100F7000074948600846406840F00200486000BFEA
:100F80000348406800F00C000828F9D10CBD0000AF
:100F90000010024000200240042808D14FF0E02158
:100FA000096941F004014FF0E022116107E04FF0C0
:100FB000E021096921F004014FF0E022116170473E
:100FC0007047000010B5002100200022214B5B6813
:100FD00003F00C0121B1042906D0082928D107E02B
:100FE0001D4B1E4C236027E01B4B1C4C236023E051
:100FF000184B5B6803F47010164B5B6803F4803287
:10100000022303EB904022B9154B4343134C23605A
:101010000DE0104B5B6803F4003323B1104B4343E6
:101020000E4C236003E00C4B43430C4C236003E065
:10103000094B0A4C236000BF00BF064B5B68C3F33B
:101040000313084CE15C054B1B68CB40034C236049
:1010500010BD00000010024000127A0014000020B1
:1010600000093D001800002010B51348006840F04A
:1010700001001149086008464068104908400E49BF
:101080004860084600680E4908400B490860084659
:10109000006820F4802008600846406820F4FE00C4
:1010A00048604FF41F008860FFF701FF4FF00060B9
:1010B0000449086010BD0000001002400000FFF865
:1010C000FFFFF6FE08ED00E07047000010B50121BB
:1010D000054800F035F8012805D1FFF7F5FF01219B
:1010E000014800F006F810BD002C0140CA430282FE
:1010F0007047CA430282704721B1028842F0010260
:10110000028004E002884FF6FE731A4002807047A6
:1011100031B1B0F8442042F40042A0F8442005E088
:10112000B0F84420C2F30E02A0F8442070471AB170
:1011300083890B43838102E083898B4383817047DA
:1011400030B50246002000230024158A05EA010379
:10115000958905EA010413B10CB1012000E00020DB
:1011600030BD1AB183890B43838102E083898B43AD
:101170008381704770B5002400220023058C4FF650
:10118000FE7635400584028C8388048B4FF68F757C
:101190002C40B51E2C400D882C43751E2A400D890D
:1011A0002A434D882A43144DA8420BD0134DA84220
:1011B00008D0134DA84205D0124DA84202D0124DBE
:1011C000A84213D14FF6F7752A404D892A434FF6AE
:1011D000FB752A408D882A434FF6FF652B404FF65A
:1011E000FF552B408D892B43CD892B43838004836E
:1011F000CD888586028470BD002C014000340140FA
:101200000040014000440140004801400A460021DE
:10121000018B4FF6F77319401143018370470000AB
:10122000002202881D4B98420ED01D4B98420BD0D5
:10123000B0F1804F08D01B4B984205D01A4B984212
:1012400002D01A4B984204D14FF68F731A404B8844
:101250001A43174B984207D0164B984204D04FF6CA
:10126000FF431A40CB881A4302808B8883850B8802
:1012700003850A4B98420BD0094B984208D00E4B7D
:10128000984205D00D4B984202D00D4B984201D1A7
:101290000B7A03860123838270470000002C0140F3
:1012A000003401400004004000080040000C0040F1
:1012B0000010004000140040004001400044014084
:1012C0000048014010B5054802880549054800F06E
:1012D00077FB00200149088010BD00003400002089
:1012E000C801002000380140054800880549064A29
:1012F0001288885404480088401C034908807047BD
:1013000004380140C80100203400002008B540F234
:101310002551104800F048F8012807D1FFF7E4FFF5
:1013200040F225510B4800F017F812E040F224413A
:10133000084800F039F801280BD10020009005483A
:10134000008800900348001D00880090FFF7BAFF56
:1013500000BF08BD0038014010B50022002340F650
:101360006A14A14200D100BF0A1201249440A3B222
:10137000DC43048010BD21B1828942F40052828195
:1013800004E082894DF6FF731A408281704702465D
:101390000020B1F5007F00D100BF13880B400BB1D6
:1013A000012000E00020704770B5024600240023B1
:1013B0000025002040F66A16B14200D100BFC1F3FB
:1013C000421501F01F03012606FA03F3012D02D195
:1013D0009689334006E0022D02D1168A334001E09F
:1013E000968A33400C12012606FA04F4168834401B
:1013F00013B10CB1012000E0002070BDF0B5034630
:10140000002400260025002040F66A17B94200D1CA
:1014100000BF1846C1F3421401F01F06012707FA66
:1014200006F5012C01D10C3004E0022C01D1103062
:1014300000E014301AB107682F43076002E0076824
:10144000AF430760F0BD00002DE9F04786B00546C8
:101450000E460024A24600BFA1460027B08900B175
:1014600000BF2F462C8A4CF6FF700440F0880443DE
:101470002C82AC894EF6F3100440B08831890843C1
:10148000718908430443AC81AC8A4FF6FF400440A5
:10149000B0890443AC8201A8FFF79EFC1F48874235
:1014A00002D1DDF810A001E0DDF80CA0A88900F45D
:1014B000004040B10AEBCA0000EB0A103168490055
:1014C000B0FBF1F807E00AEBCA0000EB0A10316844
:1014D0008900B0FBF1F86420B8FBF0F004012009AA
:1014E000642101FB1089A88900F4004040B132203A
:1014F00000EBC900B0FBF1F000F00700044308E086
:10150000322000EB09106421B0FBF1F000F00F0075
:1015100004432C8106B0BDE8F0870000003801408C
:10152000C1F308028280704700BFFEE730380A2806
:1015300001D2012070470020704700BF704710B5EE
:10154000044603E04FF47A7000F006F8201EA4F180
:101550000104F7D110BD00000021114A1268424376
:101560004FF0E0235A6100229A611A46126942F054
:1015700001021A6100BF4FF0E022116901F001027F
:101580001AB101F48032002AF5D04FF0E02212693E
:1015900022F001024FF0E0231A6100229A617047A5
:1015A0002C00002008B5012202210A48FFF73EF96D
:1015B000002000900C208DF8000001208DF8030021
:1015C00000208DF801008DF802006846FFF790FBBF
:1015D00008BD00001C00024000BF054A128802F04E
:1015E0004002002AF9D0C2B2014B1B1D1A8070477D
:1015F0000038014010B586B0044601210820FFF7ED
:10160000DBFB01214805FFF7C7FB00200290039098
:101610000490059001901C208DF807008020ADF803
:10162000040001208DF8060001A91148FFF728F9F0
:101630004020ADF8040001A90D48FFF721F94FF44F
:101640008060ADF812000001ADF8140002944BF672
:10165000FF70ADF80E000020ADF80C0002A905489F
:10166000FFF70CFA01210348FFF7C6F906B010BDD9
:10167000000C01400054004008B5002000900121FA
:101680001020FFF799FB10208DF803004002ADF801
:10169000000002208DF8020069460248FFF7F0F8CA
:1016A00008BD00000010014010B54FF4005108487B
:1016B000FFF771F9012805D1002241030448FFF723
:1016C00073F904E0012251030148FFF76DF910BDE1
:1016D000001001408CB04FF4A060FFF741FB4820A0
:1016E00000F0A4F8FFF7C8FF4FF4E13000F088F9EC
:1016F000FFF768FC01A8FFF76FFB2AA00199FEF72E
:101700008DFD2CA00299FEF789FD2DA00399FEF70F
:1017100085FD2FA00499FEF781FD31A00599FEF704
:101720007DFD64224FF47A71472000F0EDF8FFF759
:1017300039FF00F029F901212D48FFF7DDFC0921CF
:101740002C48FFF79AF801212A48FEF7A7FF2A48FC
:10175000FFF750FF294A07CA09AB07C300200690CC
:10176000079008901DE0FFF79FFFC820FFF7E7FEF6
:10177000032006ABE322802100902148FFF7F4F913
:10178000044621461FA0FEF749FD9DF81A309DF83A
:1017900019209DF8181020A0FEF740FDC820FFF783
:1017A000CEFEE0E7535953434C4B203D2025640DBA
:1017B0000A00000048434C4B203D2025640D0A00E0
:1017C00050434C4B31203D2025640D0A00000000A1
:1017D00050434C4B32203D2025640D0A0000000090
:1017E000414443434C4B203D2025640D0A0000003A
:1017F000002C01401C000240801A0600C01A00089C
:10180000005400402072656164206572726F72201E
:1018100025640D0A00000000253032782020253094
:1018200032782020253032780D0A000010B50446A9
:101830000420FFF7B1FB0448046000684FF47A719C
:1018400048430249086010BD2C00002030000020F1
:101850003EB504460D460121C802FFF7ADFA0D481A
:10186000008800F007000B490880002000900190DC
:101870000290ADF80600ADF80200ADF80450ADF8E6
:1018800000408DF80800694602480838FFF7C8FC98
:101890003EBD0000082C014000B58BB02C216846ED
:1018A000FEF7F4FD01210846FFF766FA1348FEF73C
:1018B00001FF012251021248FFF739FC102002906B
:1018C000104801900E4834300090002003904FF4EF
:1018D000006007908010069000200A9004908020FD
:1018E000059000200890099069460448FEF7A7FF7C
:1018F00000210248FEF7D2FE0BB000BD1C000240E2
:10190000002C01403800002070B586B005460E4618
:10191000144631462846FFF79BFF01210420FFF7BC
:101920004BFA01211648FFF7F3FB002005900190C8
:1019300002900390049018208DF817004FF48070E7
:10194000ADF8140003208DF8160005A90D48FEF728
:1019500097FF6020ADF804000020ADF80C00ADF852
:101960000A400120ADF8060001A90548FFF702FC76
:1019700008210348FFF74AFCFFF78EFF06B070BD51
:10198000002C01400008014008B5012211460B4817
:10199000FFF7E7FB01210948FFF7A8FB00200090B3
:1019A00019208DF8000001208DF803008DF801004A
:1019B0008DF802006846FFF79BF908BD002C014036
:1019C0002DE9F04107460C46154600260DE014F8B7
:1019D000011B3846FFF7A4FD00BF80213846FFF702
:1019E000D6FC0028F9D0701C86B2AE42EFDB00BFF7
:1019F00040213846FFF7CBFC0028F9D0BDE8F08144
:101A000010B586B0044601218803FFF7D5F90121FE
:101A10000420FFF7D1F90020059018208DF8170059
:101A20004FF40070ADF8140001208DF8160005A9E0
:101A30002148FEF725FF04208DF817000002ADF8BD
:101A4000140005A91C48FEF71BFF0020019002901E
:101A5000039004900194ADF810000C20ADF80E0036
:101A60000020ADF80C00ADF80A00ADF8080001A99F
:101A70001248FFF7E9FC01211048FFF77CFC012226
:101A800040F225510D48FFF7B9FC012240F22441F4
:101A90000A48FFF7B3FC0020009025208DF80000D5
:101AA00001208DF803008DF801008DF802006846D2
:101AB000FFF71EF906B010BD0008014000380140D4
:101AC000E300000000000000000030313233343504
:101AD000363738394142434445464030580030316A
:101AE0003233343536373839616263646566403085
:101AF000780004000008000000000000000200015F
:101B000000001000241B000800000020C801000095
:101B1000280100085C1B0008C8010020C80600005E
:101B200084010008412D010203040410090607087E
:101B3000090204060884A24A0469180110326432BA
:101B4000C8232C011A90041AF4042358021ABC0466
:0C1B50002320031A840401FF016D000033
:04000005080000ED02
:00000001FF
