:020000040800F2
:1000000090080020D1010008850800083708000882
:1000100081080008D5040008AD11000800000000A8
:10002000000000000000000000000000310B00088C
:10003000FF060008000000000D090008450C00083C
:10004000EB010008EB010008EB010008EB010008E0
:10005000EB010008EB010008EB010008EB010008D0
:10006000EB010008EB010008EB010008EB010008C0
:10007000D9040008EB010008EB010008EB010008BF
:10008000EB010008EB010008EB010008EB010008A0
:10009000EB010008EB010008EB010008EB01000890
:1000A000EB010008510D0008EB010008EB0100080E
:1000B000EB010008EB010008EB010008EB01000870
:1000C000EB010008EB010008EB010008EB01000860
:1000D000EB010008910F0008EB010008EB0100089C
:1000E000EB010008EB010008EB01000800F002F84A
:1000F00000F05FF80AA090E8000C82448344AAF163
:100100000107DA4501D100F054F8AFF2090EBAE860
:100110000F0013F0010F18BFFB1A43F0010318473B
:1001200034190000541900000A444FF0000C10F874
:10013000013B13F0070408BF10F8014B1D1108BF65
:1001400010F8015B641E05D010F8016B641E01F805
:10015000016BF9D113F0080F1EBF10F8014BAD1C55
:100160000C1B09D16D1E58BF01F801CBFAD505E073
:1001700014F8016B01F8016B6D1EF9D59142D6D3CD
:10018000704700000023002400250026103A28BFF5
:1001900078C1FBD8520728BF30C148BF0B607047F9
:1001A000642900F07780002070471FB51FBD10B58F
:1001B00010BD00F05DF91146FFF7F7FF01F0F4F90B
:1001C00000F07BF903B4FFF7F2FF03BC01F04BF939
:1001D0000948804709480047FEE7FEE7FEE7FEE7DB
:1001E000FEE7FEE7FEE7FEE7FEE7FEE70448054917
:1001F000054A064B70470000ED0C0008ED000008B2
:10020000900200209008002090040020900400201C
:10021000704700000FB4044910B503AA029800F01B
:10022000F9F810BC5DF814FB280000202DE9F0411E
:100230000E460446002020622046E168884730B31D
:10024000252805D0D4E901219047206A401CF2E717
:10025000E168204600278847050018D0A5F1410035
:10026000192802D820354FF4006732462946204627
:100270002760FFF795FF40B1012804D0F61D26F056
:1002800007060836D8E7361DD6E72846DAE7206A9B
:10029000BDE8F0812DE9F04106460024106875297B
:1002A000314616A510D0AFF30080002802DA404294
:1002B00013A507E031688A0701D512A502E04907B6
:1002C00004D511A5012401E0AFF3008000210A222A
:1002D00006F1240709E0B0FBF2FCB0FBF2F302FBED
:1002E0001C00303078541846491C0028F3D12346AE
:1002F0002A463046BDE8F04100F033B80000000067
:100300002D0000002B000000200000004FF0000234
:1003100000B5134694469646203922BFA0E80C50FB
:10032000A0E80C50B1F12001BFF4F7AF090728BFD6
:10033000A0E80C5048BF0CC05DF804EB890028BF52
:1003400040F8042B08BF704748BF20F8022B11F07B
:10035000804F18BF00F8012B7047704770477047F7
:1003600070472DE9F0470D4699469246044600F144
:1003700024080168880604D5E06921F01001216095
:1003800000E00120A84201DD471B00E00027A16931
:100390007A1902EB0900081AA0612078C00602D47D
:1003A0002046AFF30080002608E0D4E901211AF8C6
:1003B00006009047206A401C761C20624E45F4DB04
:1003C0002078C0060AD52046AFF3008006E0D4E9C5
:1003D000012130209047206A401C2062381EA7F17E
:1003E0000107F4DC07E0D4E9012118F80500904783
:1003F000206A401C2062281EA5F10105F3DC20467E
:10040000AFF300802078000602D50220BDE8F08717
:100410000120FBE7074B70B50D467B4400F011F857
:100420000446284600F020F810B14FF0FF3070BDB0
:10043000204670BDE710000001694A1C026108787F
:10044000704700B58FB0CDE9013100210591054914
:100450007944CDE9031011466846FFF7E7FE0FB077
:1004600000BD0000E5FFFFFF007B00F0800070474B
:10047000754600F02BF8AE4605006946534620F05D
:100480000700854618B020B5FFF7B0FEBDE8204054
:100490004FF000064FF000074FF000084FF0000B40
:1004A00021F00701AC46ACE8C009ACE8C009ACE8F3
:1004B000C009ACE8C0098D46704710B50446AFF3DB
:1004C00000802046BDE81040FFF77CBE0048704722
:1004D0002C02002000BFFEE710B5202000F0D0F86D
:1004E000012808D10021044800F018F8202000F06D
:1004F00007F800F003F810BD1C0002407047000030
:1005000000F0805111B10349086001E002494860E0
:1005100070470000040402400000024021B102685C
:1005200042F00102026004E002684FF6FE731A40D6
:100530000260704701684FF6FE72114001600021B1
:10054000016041608160C1604B49884208D14A49DD
:100550000839496841F00F01474A083A51608AE07A
:1005600045491431884208D143490839496841F066
:10057000F001414A083A51607DE03F492831884204
:1005800008D13D490839496841F470613A4A083A4E
:10059000516070E038493C31884208D13649083909
:1005A000496841F47041344A083A516063E0324985
:1005B0005031884208D130490839496841F47021E6
:1005C0002D4A083A516056E02B496431884208D1DF
:1005D00029490839496841F47001274A083A5160AD
:1005E00049E025497831884208D1234908394968CA
:1005F00041F07061204A083A51603CE01F4988424E
:1006000006D1011F096841F00F01021F116032E09D
:100610001A491431884208D11849091F096841F064
:10062000F001164A121F116025E014492831884252
:1006300008D11249091F096841F470610F4A121F5D
:10064000116018E00D493C31884208D10B49091F5F
:10065000096841F47041094A121F11600BE0074913
:100660005031884207D10549091F096841F47021BA
:10067000024A121F1160704708000240080402403D
:1006800001460020002201F0805313B1054B1A6887
:1006900001E0054B1A6802EA01030BB1012000E0FA
:1006A0000020704700040240000002401AB10368B5
:1006B0000B43036002E003688B430360704710B58F
:1006C0000022026847F6F0739A430C6A8B68234352
:1006D0000C6923434C6923438C692343CC6923432E
:1006E0004C6A23438C6A23431A430260CB684360FD
:1006F0000B6883604B68C36010BD416070477047F2
:100700002DE9F041024600250026002000230024A8
:10071000002791F803C00CF00F0591F803C00CF00E
:10072000100CBCF1000F03D091F802C04CEA050593
:1007300091F800C0BCF1000F31D0146800202BE00C
:100740004FF0010C0CFA00F3B1F800C00CEA0306FC
:100750009E4220D183004FF00F0C0CFA03F7BC43EC
:1007600005FA03FC4CEA040491F803C0BCF1280F1D
:1007700006D14FF0010C0CFA00FCC2F814C00AE0DC
:1007800091F803C0BCF1480F05D14FF0010C0CFAF1
:1007900000FCC2F810C0401C0828D1D31460B1F886
:1007A00000C0BCF1FF0F34DD546800202EE000F1E2
:1007B000080C4FF0010808FA0CF3B1F800C00CEA7D
:1007C00003069E4221D183004FF00F0C0CFA03F771
:1007D000BC4305FA03FC4CEA040491F803C0BCF1E5
:1007E000280F05D100F1080C08FA0CF8C2F81480A3
:1007F00091F803C0BCF1480F07D100F1080C4FF08D
:10080000010808FA0CF8C2F81080401C0828CED362
:100810005460BDE8F08102460020D3680B400BB164
:10082000012000E000207047016170470AB10161BA
:1008300000E04161704700BFFEE700004CF6CC408D
:100840000149086070470000003000404AF6AA20C5
:1008500001490860704700000030004001494860CD
:100860007047000000300040014988607047000078
:10087000003000400149086070470000003000402F
:1008800000BFFEE77047000070B5002100230F2273
:10089000C47804B3154C246804F4E064C4F5E0643F
:1008A000210AC1F10403CA40447804FA03F18478B0
:1008B0001440214309010E4C0678A155047804F038
:1008C0001F050124AC4005786D11AD0005F1E02550
:1008D000C5F8004109E0047804F01F050124AC408C
:1008E000044D0678761145F8264070BD0CED00E009
:1008F00000E400E080E100E002490143024A1160A7
:10090000704700000000FA050CED00E070470000A1
:1009100029B1064A52690243044B5A6104E0034A72
:1009200052698243014B5A61704700000010024037
:1009300029B1064A92690243044B9A6104E0034AD2
:1009400092698243014B9A61704700000010024097
:1009500030B500210022002400232D4D6D6805F0E4
:100960000C0121B1042905D0082923D105E0294D26
:10097000056022E0274D05601FE0254D6D6805F4F8
:100980007012234D6D6805F48034022505EB924208
:100990001CB9214D554305600BE01D4D6D6805F4F4
:1009A00000351DB11C4D5543056002E0194D5543FE
:1009B000056002E0174D056000BF00BF144D6D6873
:1009C00005F0F0010909154D6B5C0568DD404560D7
:1009D0000F4D6D6805F4E061090A104D6B5C4568C8
:1009E000DD4085600A4D6D6805F46051C90A0B4D04
:1009F0006B5C4568DD40C560054D6D6805F44041A0
:100A0000890B074D6B5CC568B5FBF3F5056130BD1F
:100A10000010024000127A0000093D000000002092
:100A20001000002010B504462CB900221021054802
:100A3000FFF7FCFE04E0012210210248FFF7F6FE5A
:100A400010BD00000008014021B1028842F04002C0
:100A5000028004E002884FF6BF731A40028070479C
:100A60000246002013890B400BB1012000E000205A
:100A700070470146888970478181704710B5002210
:100A8000028802F441520B884C8823438C8823430C
:100A9000CC8823430C8923434C8923438C892343EB
:100AA000CC8923431A430280838B4FF2FF74234087
:100AB00083830B8A038210BD70B505460E464FF442
:100AC0007A7405E0201EA4F101018CB200D170BD42
:100AD00002212846FFF7C4FF0028F3D031462846FC
:100AE000FFF7CAFF05E0201EA4F101018CB200D17E
:100AF000EDE701212846FFF7B3FF0028F3D0284691
:100B0000FFF7B7FFC0B2E2E72DE9F04180460D469E
:100B100016461F46002400BF06E0315D4046FFF741
:100B2000CBFF2855601C84B2BC42F6DBBDE8F081E7
:100B3000704710B500F002F810BD00000CB50020A1
:100B4000019000903348006840F4803031490860DB
:100B500000BF3048006800F4003000900198401C4D
:100B60000190009818B90198B0F5A06FF1D129480B
:100B7000006800F4003010B10120009001E0002076
:100B800000900098012843D12348006840F01000ED
:100B9000214908600846006820F003000860084604
:100BA000006840F0020008601A484068194948602F
:100BB0000846406848600846406840F480604860E5
:100BC0000846406820F47C1048600846406840F4BD
:100BD000E81048600846006840F08070086000BF78
:100BE0000C48006800F000700028F9D009484068FF
:100BF00020F00300074948600846406840F00200C2
:100C0000486000BF0348406800F00C000828F9D194
:100C10000CBD00000010024000200240042808D152
:100C20004FF0E021096941F004014FF0E022116129
:100C300007E04FF0E021096921F004014FF0E022C4
:100C4000116170477047000010B50021002000229C
:100C5000214B5B6803F00C0121B1042906D008295F
:100C600028D107E01D4B1E4C236027E01B4B1C4C7A
:100C7000236023E0184B5B6803F47010164B5B682D
:100C800003F48032022303EB904022B9154B434317
:100C9000134C23600DE0104B5B6803F4003323B169
:100CA000104B43430E4C236003E00C4B43430C4C6E
:100CB000236003E0094B0A4C236000BF00BF064BD2
:100CC0005B68C3F30313084CE15C054B1B68CB4026
:100CD000034C236010BD00000010024000127A0097
:100CE0001400002000093D001800002010B5134832
:100CF000006840F00100114908600846406810494A
:100D000008400E494860084600680E4908400B49F3
:100D100008600846006820F48020086008464068A3
:100D200020F4FE0048604FF41F008860FFF701FFC9
:100D30004FF000600449086010BD00000010024040
:100D40000000FFF8FFFFF6FE08ED00E0704700002E
:100D500010B50121054800F035F8012805D1FFF74D
:100D6000F5FF0121014800F006F810BD002C0140FC
:100D7000CA4302827047CA430282704721B1028887
:100D800042F00102028004E002884FF6FE731A402E
:100D90000280704731B1B0F8442042F40042A0F81C
:100DA000442005E0B0F84420C2F30E02A0F844202D
:100DB00070471AB183890B43838102E083898B4397
:100DC0008381704730B50246002000230024158A35
:100DD00005EA0103958905EA010413B10CB101206C
:100DE00000E0002030BD1AB183890B43838102E00B
:100DF00083898B438381704770B5002400220023D0
:100E0000058C4FF6FE7635400584028C8388048B72
:100E10004FF68F752C40B51E2C400D882C43751E47
:100E20002A400D892A434D882A43144DA8420BD0ED
:100E3000134DA84208D0134DA84205D0124DA84228
:100E400002D0124DA84213D14FF6F7752A404D89B2
:100E50002A434FF6FB752A408D882A434FF6FF65DB
:100E60002B404FF6FF552B408D892B43CD892B43CB
:100E700083800483CD888586028470BD002C014068
:100E8000003401400040014000440140004801405E
:100E90000A460021018B4FF6F77319401143018375
:100EA00070470000002202881D4B98420ED01D4B57
:100EB00098420BD0B0F1804F08D01B4B984205D020
:100EC0001A4B984202D01A4B984204D14FF68F73B6
:100ED0001A404B881A43174B984207D0164B98423A
:100EE00004D04FF6FF431A40CB881A4302808B8808
:100EF00083850B8803850A4B98420BD0094B984297
:100F000008D00E4B984205D00D4B984202D00D4BA5
:100F1000984201D10B7A0386012383827047000037
:100F2000002C014000340140000400400008004053
:100F3000000C004000100040001400400040014040
:100F4000004401400048014010B5054802880549A9
:100F5000054800F0E5FC00200149088010BD0000B4
:100F600034000020C80100200038014005480088F6
:100F70000549064A1288885404480088401C0349E1
:100F80000880704704380140C80100203400002068
:100F900008B540F22551104800F048F8012807D163
:100FA000FFF7E4FF40F225510B4800F017F812E07C
:100FB00040F22441084800F039F801280BD1002004
:100FC00000900548008800900348001D00880090AC
:100FD000FFF7BAFF00BF08BD0038014010B500227E
:100FE000002340F66A14A14200D100BF0A12012476
:100FF0009440A3B2DC43048010BD21B1828942F445
:101000000052828104E082894DF6FF731A4082818A
:10101000704702460020B1F5007F00D100BF138861
:101020000B400BB1012000E00020704770B5024674
:10103000002400230025002040F66A16B14200D1AA
:1010400000BFC1F3421501F01F03012606FA03F3A6
:10105000012D02D19689334006E0022D02D1168A75
:10106000334001E0968A33400C12012606FA04F45C
:101070001688344013B10CB1012000E0002070BD8F
:10108000F0B50346002400260025002040F66A172C
:10109000B94200D100BF1846C1F3421401F01F0647
:1010A000012707FA06F5012C01D10C3004E0022CCF
:1010B00001D1103000E014301AB107682F430760E7
:1010C00002E00768AF430760F0BD00002DE9F0477C
:1010D00086B005460E460024A24600BFA146002762
:1010E000B08900B100BF2F462C8A4CF6FF70044037
:1010F000F08804432C82AC894EF6F3100440B0888B
:1011000031890843718908430443AC81AC8A4FF6A6
:10111000FF400440B0890443AC8201A8FFF718FCEB
:101120001F48874202D1DDF810A001E0DDF80CA0D5
:10113000A88900F4004040B10AEBCA0000EB0A1095
:1011400031684900B0FBF1F807E00AEBCA0000EB98
:101150000A1031688900B0FBF1F86420B8FBF0F0A8
:1011600004012009642101FB1089A88900F40040D2
:1011700040B1322000EBC900B0FBF1F000F00700F5
:10118000044308E0322000EB09106421B0FBF1F0C9
:1011900000F00F0004432C8106B0BDE8F08700008A
:1011A00000380140C1F308028280704700BFFEE7AB
:1011B00070B504460E4615460020FFF733FC2B465B
:1011C000224631460348FFF79FFC0120FFF72AFC27
:1011D00070BD00000030014010B500220821074812
:1011E000FFF724FB0A2000F040F901220821034800
:1011F000FFF71CFB0A2000F038F910BD0008014081
:101200007CB5044644F040058DF8045034208DF838
:1012100005000222694601A8FFF7CAFF9DF80100F8
:101220007CBD7CB504460D46601E402141EA00109D
:101230002843C6B28DF804600222694601A8FFF770
:10124000B7FF9DF801007CBD2DE9F0470446002062
:10125000FFF7D6FF0546601E012101FA00F0284382
:10126000C5B22946002000F0B8F80120FFF7C8FFFA
:101270000646601E012101FA00F03043C6B2314635
:10128000012000F0AAF81020FFF7BAFF0746601E01
:10129000012101FA00F03843C7B23946102000F0AE
:1012A0009CF807212046FFF7BCFF804648F0030862
:1012B00042460721204600F0C0F8FF2206212046C2
:1012C00000F0BBF801220321204600F0B6F84022CE
:1012D0000721204600F0B1F810220821204600F036
:1012E000ACF800220321204600F0A7F80421204694
:1012F000FFF797FF814649F003094A46042120463B
:1013000000F09BF8BDE8F0872DE9F05F82460C46BF
:10131000254EB6EB041F41D32001B6FBF0F56D1E40
:10132000C5F3072705F0FF082001B6FBF0F100FB2D
:10133000116064214843B0FBF4F505F13200B0FBC5
:10134000F1F000F0FF0904215046FFF76AFF8346E1
:1013500000220421504600F070F80122032150467B
:1013600000F06BF83A460421504600F066F8424619
:101370000521504600F061F84A460621504600F02B
:101380005CF800220321504600F057F85A46042129
:10139000504600F052F80020BDE8F09F03A0FEF791
:1013A00039FF0120F8E7000000C0A800576B5F5329
:1013B000657442617564206572726F722121210A21
:1013C0000000000070B506460C461546A2B229463C
:1013D000304600F010F8002070BD7CB504460D4684
:1013E00026468DF804608DF805500222694601A852
:1013F000FFF7DEFE7CBD2DE9F041ADF5027D06462E
:101400000F461546701E802141EA001000F0FF08CB
:101410008DF80481002404E0395D601C41AA115458
:10142000641CAC42F8DB681C82B2694641A8FFF735
:10143000BFFE0DF5027DBDE8F0812DE9FC410446BB
:101440000D461646601E002141EA00102843C7B22F
:101450008DF804708DF805600222694601A8FFF737
:10146000A7FEBDE8FC8100BF704710B5044603E04D
:101470004FF47A7000F006F8201EA4F10104F7D1B1
:1014800010BD00000021114A126842434FF0E023D2
:101490005A6100229A611A46126942F001021A61E9
:1014A00000BF4FF0E022116901F001021AB101F40E
:1014B0008032002AF5D04FF0E022126922F00102BA
:1014C0004FF0E0231A6100229A6170472C0000203F
:1014D00008B5012202210A48FFF7E8F80020009031
:1014E0000C208DF8000001208DF8030000208DF8FD
:1014F00001008DF802006846FFF7C6F908BD00003C
:101500001C00024000BF054A128802F04002002A77
:10151000F9D0C2B2014B1B1D1A8070470038014040
:1015200070B505460C4645F25550FFF7A3F928461D
:10153000FFF794F92046FFF797F9FFF787F9FFF7D0
:101540007DF970BD10B5FFF781F910BD08B5002019
:10155000009001211020FFF7EBF910208DF8030017
:101560004002ADF8000002208DF8020069460248F2
:10157000FFF7C6F808BD00000010014010B54FF499
:1015800000510848FFF747F9012805D1002241031F
:101590000448FFF74BF904E0012251030148FFF72B
:1015A00045F910BD0010014086B04FF4A060FFF770
:1015B000A3F9482000F0EAF8FFF7C8FF4FF4E13044
:1015C00000F0CEF9FFF740FB01A8FFF7C1F923A017
:1015D0000199FEF71FFE25A00299FEF71BFE26A02B
:1015E0000399FEF717FE28A00499FEF713FE2AA020
:1015F0000599FEF70FFE64224FF47A71472000F040
:1016000033F9FFF765FF00F06FF901212648FFF776
:10161000B5FB09212548FFF770F801212348FEF7A3
:101620007DFF00F0FDF9FFF7D7FD0120FFF70CFE6D
:101630004FF4E1310120FFF767FE4FF47A61032098
:10164000FFF76EFF1AA210210120FFF7BBFE03E097
:10165000FFF778FFFFF792FFFAE700005359534373
:101660004C4B203D2025640D0A00000048434C4BA4
:10167000203D2025640D0A0050434C4B31203D2075
:1016800025640D0A0000000050434C4B32203D20E1
:1016900025640D0A00000000414443434C4B203DAB
:1016A0002025640D0A000000002C01401C000240AF
:1016B00073797374656D20726573746172740D0A49
:1016C0000000000000B587B001210420FFF730F9C9
:1016D00001210803FFF72CF900200690142101A82E
:1016E000FEF714FE18208DF81B002020ADF818001E
:1016F00003208DF81A0006A92248FFF701F81820E8
:101700008DF81B008020ADF8180003208DF81A001A
:1017100006A91C48FEF7F4FF18208DF81B00402096
:10172000ADF8180003208DF81A0006A91548FEF739
:10173000E7FFE0211348FFF777F81020ADF810001D
:101740000020ADF80C00ADF80A000720ADF8140039
:101750000020ADF80800ADF80400ADF812004FF419
:101760008270ADF806004FF40070ADF80E0001A9CC
:101770000548FFF783F901210348FFF765F907B032
:1017800000BD0000000801400030014010B50446D3
:101790000420FFF743FA0448046000684FF47A71AC
:1017A00048430249086010BD2C0000203000002092
:1017B0003EB504460D460121C802FFF7B9F80D48B1
:1017C000008800F007000B4908800020009001907D
:1017D0000290ADF80600ADF80200ADF80450ADF887
:1017E00000408DF80800694602480838FFF75AFBA8
:1017F0003EBD0000082C014000B58BB02C2168468E
:10180000FEF784FD01210846FFF782F81348FEF732
:1018100091FE012251021248FFF7CBFA10200290EC
:10182000104801900E4834300090002003904FF48F
:10183000006007908010069000200A90049080209D
:10184000059000200890099069460448FEF737FF8C
:1018500000210248FEF762FE0BB000BD1C000240F2
:10186000002C01403800002070B586B005460E46B9
:10187000144631462846FFF79BFF01210420FFF75D
:1018800057F801211648FFF785FA002005900190CE
:1018900002900390049018208DF817004FF4807088
:1018A000ADF8140003208DF8160005A90D48FEF7C9
:1018B00027FF6020ADF804000020ADF80C00ADF863
:1018C0000A400120ADF8060001A90548FFF794FA87
:1018D00008210348FFF7DCFAFFF78EFF06B070BD62
:1018E000002C01400008014008B5012211460B48B8
:1018F000FFF779FA01210948FFF73AFA0020009032
:1019000019208DF8000001208DF803008DF80100EA
:101910008DF802006846FEF7B7FF08BD002C0140B5
:101920002DE9F04107460C46154600260DE014F857
:10193000011B3846FFF736FC00BF80213846FFF711
:1019400068FB0028F9D0701C86B2AE42EFDB00BF06
:1019500040213846FFF75DFB0028F9D0BDE8F08153
:1019600010B586B0044601218803FEF7E1FF01218E
:101970000420FEF7DDFF0020059018208DF81700E9
:101980004FF40070ADF8140001208DF8160005A981
:101990002148FEF7B5FE04208DF817000002ADF8CF
:1019A000140005A91C48FEF7ABFE00200190029030
:1019B000039004900194ADF810000C20ADF80E00D7
:1019C0000020ADF80C00ADF80A00ADF8080001A940
:1019D0001248FFF77BFB01211048FFF70EFB0122A5
:1019E00040F225510D48FFF74BFB012240F2244104
:1019F0000A48FFF745FB0020009025208DF80000E5
:101A000001208DF803008DF801008DF80200684672
:101A1000FEF73AFF06B010BD000801400038014053
:101A200008B501210420FEF783FF0020009010205C
:101A30008DF803001820ADF8000002208DF8020098
:101A400069460348FEF75CFEFFF73CFE08BD000058
:101A500000080140741A000800000020C8010000BE
:101A600028010008AC1A0008C8010020C8060000C0
:101A700084010008412D010203040410090607082F
:101A8000090204060884A24A04691801103264326B
:101A9000C8232C011A90041AF4042358021ABC0417
:0C1AA0002320031A840401FF016D0000E4
:04000005080000ED02
:00000001FF
